{
  "_format": "hh-sol-artifact-1",
  "contractName": "VoteSystem",
  "sourceName": "contracts/VoteSystem.sol",
  "abi": [
    {
      "inputs": [
        {
          "internalType": "uint256",
          "name": "_maxProposals",
          "type": "uint256"
        }
      ],
      "stateMutability": "nonpayable",
      "type": "constructor"
    },
    {
      "anonymous": false,
      "inputs": [],
      "name": "CancelVote",
      "type": "event"
    },
    {
      "anonymous": false,
      "inputs": [],
      "name": "CreateCandidate",
      "type": "event"
    },
    {
      "anonymous": false,
      "inputs": [
        {
          "indexed": false,
          "internalType": "string",
          "name": "_name",
          "type": "string"
        },
        {
          "indexed": false,
          "internalType": "string",
          "name": "_description",
          "type": "string"
        }
      ],
      "name": "CreateProposal",
      "type": "event"
    },
    {
      "anonymous": false,
      "inputs": [],
      "name": "EndVote",
      "type": "event"
    },
    {
      "anonymous": false,
      "inputs": [],
      "name": "PauseVote",
      "type": "event"
    },
    {
      "anonymous": false,
      "inputs": [],
      "name": "ResumeVote",
      "type": "event"
    },
    {
      "anonymous": false,
      "inputs": [
        {
          "indexed": false,
          "internalType": "uint256",
          "name": "_nroOfVote",
          "type": "uint256"
        }
      ],
      "name": "StartVote",
      "type": "event"
    },
    {
      "anonymous": false,
      "inputs": [
        {
          "indexed": false,
          "internalType": "uint256",
          "name": "_proposal",
          "type": "uint256"
        }
      ],
      "name": "Vote",
      "type": "event"
    },
    {
      "inputs": [],
      "name": "admin",
      "outputs": [
        {
          "internalType": "address",
          "name": "",
          "type": "address"
        }
      ],
      "stateMutability": "view",
      "type": "function"
    },
    {
      "inputs": [],
      "name": "cancelVote",
      "outputs": [],
      "stateMutability": "nonpayable",
      "type": "function"
    },
    {
      "inputs": [
        {
          "internalType": "uint256",
          "name": "",
          "type": "uint256"
        }
      ],
      "name": "candidates",
      "outputs": [
        {
          "internalType": "address",
          "name": "",
          "type": "address"
        }
      ],
      "stateMutability": "view",
      "type": "function"
    },
    {
      "inputs": [],
      "name": "candidatesOf",
      "outputs": [
        {
          "internalType": "bool",
          "name": "",
          "type": "bool"
        }
      ],
      "stateMutability": "view",
      "type": "function"
    },
    {
      "inputs": [],
      "name": "createCandidate",
      "outputs": [
        {
          "internalType": "uint256",
          "name": "candidateID",
          "type": "uint256"
        }
      ],
      "stateMutability": "nonpayable",
      "type": "function"
    },
    {
      "inputs": [
        {
          "internalType": "string",
          "name": "_name",
          "type": "string"
        },
        {
          "internalType": "string",
          "name": "_description",
          "type": "string"
        }
      ],
      "name": "createProposal",
      "outputs": [
        {
          "internalType": "uint256",
          "name": "proposalID",
          "type": "uint256"
        }
      ],
      "stateMutability": "nonpayable",
      "type": "function"
    },
    {
      "inputs": [],
      "name": "endVote",
      "outputs": [],
      "stateMutability": "nonpayable",
      "type": "function"
    },
    {
      "inputs": [],
      "name": "endingVote",
      "outputs": [
        {
          "internalType": "uint256",
          "name": "",
          "type": "uint256"
        }
      ],
      "stateMutability": "view",
      "type": "function"
    },
    {
      "inputs": [],
      "name": "getBlock",
      "outputs": [
        {
          "internalType": "uint256",
          "name": "",
          "type": "uint256"
        }
      ],
      "stateMutability": "view",
      "type": "function"
    },
    {
      "inputs": [],
      "name": "initialVote",
      "outputs": [
        {
          "internalType": "uint256",
          "name": "",
          "type": "uint256"
        }
      ],
      "stateMutability": "view",
      "type": "function"
    },
    {
      "inputs": [],
      "name": "maxProposals",
      "outputs": [
        {
          "internalType": "uint256",
          "name": "",
          "type": "uint256"
        }
      ],
      "stateMutability": "view",
      "type": "function"
    },
    {
      "inputs": [],
      "name": "numberOfCandidates",
      "outputs": [
        {
          "internalType": "uint256",
          "name": "",
          "type": "uint256"
        }
      ],
      "stateMutability": "view",
      "type": "function"
    },
    {
      "inputs": [],
      "name": "numberOfProposals",
      "outputs": [
        {
          "internalType": "uint256",
          "name": "",
          "type": "uint256"
        }
      ],
      "stateMutability": "view",
      "type": "function"
    },
    {
      "inputs": [],
      "name": "numberOfVoters",
      "outputs": [
        {
          "internalType": "uint256",
          "name": "",
          "type": "uint256"
        }
      ],
      "stateMutability": "view",
      "type": "function"
    },
    {
      "inputs": [],
      "name": "numberOfVotes",
      "outputs": [
        {
          "internalType": "uint256",
          "name": "",
          "type": "uint256"
        }
      ],
      "stateMutability": "view",
      "type": "function"
    },
    {
      "inputs": [],
      "name": "pauseVote",
      "outputs": [],
      "stateMutability": "nonpayable",
      "type": "function"
    },
    {
      "inputs": [
        {
          "internalType": "uint256",
          "name": "",
          "type": "uint256"
        }
      ],
      "name": "proposals",
      "outputs": [
        {
          "internalType": "address",
          "name": "candidate",
          "type": "address"
        },
        {
          "internalType": "string",
          "name": "name",
          "type": "string"
        },
        {
          "internalType": "string",
          "name": "description",
          "type": "string"
        }
      ],
      "stateMutability": "view",
      "type": "function"
    },
    {
      "inputs": [],
      "name": "resumeVote",
      "outputs": [],
      "stateMutability": "nonpayable",
      "type": "function"
    },
    {
      "inputs": [
        {
          "internalType": "uint256",
          "name": "_nroOfVote",
          "type": "uint256"
        }
      ],
      "name": "startVote",
      "outputs": [],
      "stateMutability": "nonpayable",
      "type": "function"
    },
    {
      "inputs": [],
      "name": "targetBlock",
      "outputs": [
        {
          "internalType": "uint256",
          "name": "",
          "type": "uint256"
        }
      ],
      "stateMutability": "view",
      "type": "function"
    },
    {
      "inputs": [
        {
          "internalType": "uint256",
          "name": "_proposal",
          "type": "uint256"
        }
      ],
      "name": "vote",
      "outputs": [],
      "stateMutability": "nonpayable",
      "type": "function"
    },
    {
      "inputs": [],
      "name": "voteState",
      "outputs": [
        {
          "internalType": "enum VoteSystem.State",
          "name": "",
          "type": "uint8"
        }
      ],
      "stateMutability": "view",
      "type": "function"
    },
    {
      "inputs": [
        {
          "internalType": "address",
          "name": "addr",
          "type": "address"
        },
        {
          "internalType": "uint256",
          "name": "_proposal",
          "type": "uint256"
        }
      ],
      "name": "votesOf",
      "outputs": [
        {
          "internalType": "bool",
          "name": "",
          "type": "bool"
        }
      ],
      "stateMutability": "view",
      "type": "function"
    },
    {
      "inputs": [
        {
          "internalType": "uint256",
          "name": "_proposal",
          "type": "uint256"
        }
      ],
      "name": "votesPerCandidatesOf",
      "outputs": [
        {
          "internalType": "uint256",
          "name": "",
          "type": "uint256"
        }
      ],
      "stateMutability": "view",
      "type": "function"
    },
    {
      "inputs": [
        {
          "internalType": "uint256",
          "name": "",
          "type": "uint256"
        }
      ],
      "name": "votesPerProposal",
      "outputs": [
        {
          "internalType": "uint256",
          "name": "",
          "type": "uint256"
        }
      ],
      "stateMutability": "view",
      "type": "function"
    }
  ],
  "bytecode": "0x60806040526101f46008553480156200001757600080fd5b50604051620022733803806200227383398181016040528101906200003d9190620000f4565b80600781905550336000806101000a81548173ffffffffffffffffffffffffffffffffffffffff021916908373ffffffffffffffffffffffffffffffffffffffff1602179055506000600960006101000a81548160ff02191690836004811115620000d1577f4e487b7100000000000000000000000000000000000000000000000000000000600052602160045260246000fd5b02179055505062000144565b600081519050620000ee816200012a565b92915050565b6000602082840312156200010757600080fd5b60006200011784828501620000dd565b91505092915050565b6000819050919050565b620001358162000120565b81146200014157600080fd5b50565b61211f80620001546000396000f3fe608060405234801561001057600080fd5b50600436106101735760003560e01c806365e481e2116100de5780639c84bb2711610097578063bb6560eb11610071578063bb6560eb1461041c578063c4d300411461043a578063cc6649b714610444578063f851a4401461046257610173565b80639c84bb27146103c4578063b4603681146103e2578063b92239461461041257610173565b806365e481e21461030057806366597e5a146103305780638d7af4731461034e5780638fead5521461036c57806395c965541461039c5780639bcc3361146103a657610173565b806311e8f2d71161013057806311e8f2d71461022a5780632e97766d146102485780632f3fe24c146102665780633477ee2e146102845780633f220524146102b45780635b528c29146102d057610173565b80630121b93f14610178578063013cf08b1461019457806308de24c5146101c65780630a16697a146101d05780630e7d490d146101ee5780630fc426251461020c575b600080fd5b610192600480360381019061018d919061193d565b610480565b005b6101ae60048036038101906101a9919061193d565b6106f7565b6040516101bd93929190611aeb565b60405180910390f35b6101ce610851565b005b6101d861095e565b6040516101e59190611c7d565b60405180910390f35b6101f6610964565b6040516102039190611c7d565b60405180910390f35b61021461096a565b6040516102219190611c7d565b60405180910390f35b610232610c43565b60405161023f9190611c7d565b60405180910390f35b610250610c49565b60405161025d9190611c7d565b60405180910390f35b61026e610c51565b60405161027b9190611c7d565b60405180910390f35b61029e6004803603810190610299919061193d565b610c57565b6040516102ab9190611ad0565b60405180910390f35b6102ce60048036038101906102c9919061193d565b610c8a565b005b6102ea60048036038101906102e5919061193d565b610fa4565b6040516102f79190611c7d565b60405180910390f35b61031a600480360381019061031591906118d1565b610fbc565b6040516103279190611c7d565b60405180910390f35b61033861126e565b6040516103459190611b4b565b60405180910390f35b610356611281565b6040516103639190611c7d565b60405180910390f35b61038660048036038101906103819190611895565b611287565b6040516103939190611b30565b60405180910390f35b6103a4611305565b005b6103ae611412565b6040516103bb9190611c7d565b60405180910390f35b6103cc611418565b6040516103d99190611c7d565b60405180910390f35b6103fc60048036038101906103f7919061193d565b61141e565b6040516104099190611c7d565b60405180910390f35b61041a61143b565b005b610424611548565b6040516104319190611c7d565b60405180910390f35b61044261154e565b005b61044c61165b565b6040516104599190611b30565b60405180910390f35b61046a6116af565b6040516104779190611ad0565b60405180910390f35b600260048111156104ba577f4e487b7100000000000000000000000000000000000000000000000000000000600052602160045260246000fd5b600960009054906101000a900460ff166004811115610502577f4e487b7100000000000000000000000000000000000000000000000000000000600052602160045260246000fd5b1415610543576040517f08c379a000000000000000000000000000000000000000000000000000000000815260040161053a90611b9d565b60405180910390fd5b60001515600a6000600254815260200190815260200160002060010160003373ffffffffffffffffffffffffffffffffffffffff1673ffffffffffffffffffffffffffffffffffffffff168152602001908152602001600020600083815260200190815260200160002060009054906101000a900460ff161515146105fd576040517f08c379a00000000000000000000000000000000000000000000000000000000081526004016105f490611c5d565b60405180910390fd5b6001600a6000600254815260200190815260200160002060010160003373ffffffffffffffffffffffffffffffffffffffff1673ffffffffffffffffffffffffffffffffffffffff168152602001908152602001600020600083815260200190815260200160002060006101000a81548160ff021916908315150217905550600e600082815260200190815260200160002060008154809291906106a090611e72565b9190505550600160008154809291906106b890611e72565b91905055507fdcd6a5cd90707bfd61ed2fddae23e88c584cb5b78a0e9989710a59fd84c0a1f9816040516106ec9190611c7d565b60405180910390a150565b600b6020528060005260406000206000915090508060000160009054906101000a900473ffffffffffffffffffffffffffffffffffffffff169080600101805461074090611e0f565b80601f016020809104026020016040519081016040528092919081815260200182805461076c90611e0f565b80156107b95780601f1061078e576101008083540402835291602001916107b9565b820191906000526020600020905b81548152906001019060200180831161079c57829003601f168201915b5050505050908060020180546107ce90611e0f565b80601f01602080910402602001604051908101604052809291908181526020018280546107fa90611e0f565b80156108475780601f1061081c57610100808354040283529160200191610847565b820191906000526020600020905b81548152906001019060200180831161082a57829003601f168201915b5050505050905083565b60008054906101000a900473ffffffffffffffffffffffffffffffffffffffff1673ffffffffffffffffffffffffffffffffffffffff163373ffffffffffffffffffffffffffffffffffffffff16146108df576040517f08c379a00000000000000000000000000000000000000000000000000000000081526004016108d690611bbd565b60405180910390fd5b6001600960006101000a81548160ff0219169083600481111561092b577f4e487b7100000000000000000000000000000000000000000000000000000000600052602160045260246000fd5b02179055507ffdef01b23879e7821b117924d8e1b150f5ebe88b8119e99c2b0a755b0c72723260405160405180910390a1565b60085481565b60025481565b60008060009054906101000a900473ffffffffffffffffffffffffffffffffffffffff1673ffffffffffffffffffffffffffffffffffffffff163373ffffffffffffffffffffffffffffffffffffffff1614156109fc576040517f08c379a00000000000000000000000000000000000000000000000000000000081526004016109f390611bdd565b60405180910390fd5b60006004811115610a36577f4e487b7100000000000000000000000000000000000000000000000000000000600052602160045260246000fd5b600960009054906101000a900460ff166004811115610a7e577f4e487b7100000000000000000000000000000000000000000000000000000000600052602160045260246000fd5b14610abe576040517f08c379a0000000000000000000000000000000000000000000000000000000008152600401610ab590611c3d565b60405180910390fd5b60001515600d60003373ffffffffffffffffffffffffffffffffffffffff1673ffffffffffffffffffffffffffffffffffffffff16815260200190815260200160002060009054906101000a900460ff16151514610b51576040517f08c379a0000000000000000000000000000000000000000000000000000000008152600401610b4890611bfd565b60405180910390fd5b60046000815480929190610b6490611e72565b91905055905033600c600083815260200190815260200160002060006101000a81548173ffffffffffffffffffffffffffffffffffffffff021916908373ffffffffffffffffffffffffffffffffffffffff1602179055506001600d60003373ffffffffffffffffffffffffffffffffffffffff1673ffffffffffffffffffffffffffffffffffffffff16815260200190815260200160002060006101000a81548160ff0219169083151502179055507fda0428bd9c6d92a5729cc7421f42dec5f0d64560b37ec113475b7d67385d175c60405160405180910390a190565b60065481565b600043905090565b60075481565b600c6020528060005260406000206000915054906101000a900473ffffffffffffffffffffffffffffffffffffffff1681565b60008054906101000a900473ffffffffffffffffffffffffffffffffffffffff1673ffffffffffffffffffffffffffffffffffffffff163373ffffffffffffffffffffffffffffffffffffffff1614610d18576040517f08c379a0000000000000000000000000000000000000000000000000000000008152600401610d0f90611bbd565b60405180910390fd5b60006004811115610d52577f4e487b7100000000000000000000000000000000000000000000000000000000600052602160045260246000fd5b600960009054906101000a900460ff166004811115610d9a577f4e487b7100000000000000000000000000000000000000000000000000000000600052602160045260246000fd5b14610dda576040517f08c379a0000000000000000000000000000000000000000000000000000000008152600401610dd190611c3d565b60405180910390fd5b43600581905550600854600554610df19190611d0a565b6006819055506000600a6000838152602001908152602001600020905060005b600354811015610f175781600001600b600083815260200190815260200160002090806001815401808255809150506001900390600052602060002090600302016000909190919091506000820160009054906101000a900473ffffffffffffffffffffffffffffffffffffffff168160000160006101000a81548173ffffffffffffffffffffffffffffffffffffffff021916908373ffffffffffffffffffffffffffffffffffffffff1602179055506001820181600101908054610ed690611e0f565b610ee19291906116d3565b506002820181600201908054610ef690611e0f565b610f019291906116d3565b5050508080610f0f90611e72565b915050610e11565b506001600960006101000a81548160ff02191690836004811115610f64577f4e487b7100000000000000000000000000000000000000000000000000000000600052602160045260246000fd5b02179055507f33c2d6285ba1442f7dd954820743aacec7468bc52e1671024b948f48f132264082604051610f989190611c7d565b60405180910390a15050565b600e6020528060005260406000206000915090505481565b600060075460035410611004576040517f08c379a0000000000000000000000000000000000000000000000000000000008152600401610ffb90611c1d565b60405180910390fd5b6000600481111561103e577f4e487b7100000000000000000000000000000000000000000000000000000000600052602160045260246000fd5b600960009054906101000a900460ff166004811115611086577f4e487b7100000000000000000000000000000000000000000000000000000000600052602160045260246000fd5b146110c6576040517f08c379a00000000000000000000000000000000000000000000000000000000081526004016110bd90611c3d565b60405180910390fd5b600080600b600060035481526020019081526020016000209050600360008154809291906110f390611e72565b91905055925060005b600454811015611184573373ffffffffffffffffffffffffffffffffffffffff16600c600083815260200190815260200160002060009054906101000a900473ffffffffffffffffffffffffffffffffffffffff1673ffffffffffffffffffffffffffffffffffffffff161415611171578092505b808061117c90611e72565b9150506110fc565b508481600101908051906020019061119d929190611760565b50838160020190805190602001906111b6929190611760565b50600c600083815260200190815260200160002060009054906101000a900473ffffffffffffffffffffffffffffffffffffffff168160000160006101000a81548173ffffffffffffffffffffffffffffffffffffffff021916908373ffffffffffffffffffffffffffffffffffffffff1602179055507f0df07b816b315b2bde065e08ab06afb6990d07ffad72e6ff9f62482d176f1d46858560405161125e929190611b66565b60405180910390a1505092915050565b600960009054906101000a900460ff1681565b60035481565b6000600a6000600254815260200190815260200160002060010160008473ffffffffffffffffffffffffffffffffffffffff1673ffffffffffffffffffffffffffffffffffffffff168152602001908152602001600020600083815260200190815260200160002060009054906101000a900460ff16905092915050565b60008054906101000a900473ffffffffffffffffffffffffffffffffffffffff1673ffffffffffffffffffffffffffffffffffffffff163373ffffffffffffffffffffffffffffffffffffffff1614611393576040517f08c379a000000000000000000000000000000000000000000000000000000000815260040161138a90611bbd565b60405180910390fd5b6004600960006101000a81548160ff021916908360048111156113df577f4e487b7100000000000000000000000000000000000000000000000000000000600052602160045260246000fd5b02179055507f4357615124cb151897eea16b1113fe4f749bb8a480348a5889826e6f2ead04fa60405160405180910390a1565b60015481565b60045481565b6000600e6000838152602001908152602001600020549050919050565b60008054906101000a900473ffffffffffffffffffffffffffffffffffffffff1673ffffffffffffffffffffffffffffffffffffffff163373ffffffffffffffffffffffffffffffffffffffff16146114c9576040517f08c379a00000000000000000000000000000000000000000000000000000000081526004016114c090611bbd565b60405180910390fd5b6002600960006101000a81548160ff02191690836004811115611515577f4e487b7100000000000000000000000000000000000000000000000000000000600052602160045260246000fd5b02179055507f72a413a944033f2811309f8e0db2ad143782431ab2b6e39c7ad968ffbe28f11360405160405180910390a1565b60055481565b60008054906101000a900473ffffffffffffffffffffffffffffffffffffffff1673ffffffffffffffffffffffffffffffffffffffff163373ffffffffffffffffffffffffffffffffffffffff16146115dc576040517f08c379a00000000000000000000000000000000000000000000000000000000081526004016115d390611bbd565b60405180910390fd5b6003600960006101000a81548160ff02191690836004811115611628577f4e487b7100000000000000000000000000000000000000000000000000000000600052602160045260246000fd5b02179055507f1729962d2a4afd5f9d036c49917745ff72c9c91a56810808593114fa866224aa60405160405180910390a1565b6000600d60003373ffffffffffffffffffffffffffffffffffffffff1673ffffffffffffffffffffffffffffffffffffffff16815260200190815260200160002060009054906101000a900460ff16905090565b60008054906101000a900473ffffffffffffffffffffffffffffffffffffffff1681565b8280546116df90611e0f565b90600052602060002090601f016020900481019282611701576000855561174f565b82601f10611712578054855561174f565b8280016001018555821561174f57600052602060002091601f016020900482015b8281111561174e578254825591600101919060010190611733565b5b50905061175c91906117e6565b5090565b82805461176c90611e0f565b90600052602060002090601f01602090048101928261178e57600085556117d5565b82601f106117a757805160ff19168380011785556117d5565b828001600101855582156117d5579182015b828111156117d45782518255916020019190600101906117b9565b5b5090506117e291906117e6565b5090565b5b808211156117ff5760008160009055506001016117e7565b5090565b600061181661181184611cbd565b611c98565b90508281526020810184848401111561182e57600080fd5b611839848285611dcd565b509392505050565b600081359050611850816120bb565b92915050565b600082601f83011261186757600080fd5b8135611877848260208601611803565b91505092915050565b60008135905061188f816120d2565b92915050565b600080604083850312156118a857600080fd5b60006118b685828601611841565b92505060206118c785828601611880565b9150509250929050565b600080604083850312156118e457600080fd5b600083013567ffffffffffffffff8111156118fe57600080fd5b61190a85828601611856565b925050602083013567ffffffffffffffff81111561192757600080fd5b61193385828601611856565b9150509250929050565b60006020828403121561194f57600080fd5b600061195d84828501611880565b91505092915050565b61196f81611d60565b82525050565b61197e81611d72565b82525050565b61198d81611dbb565b82525050565b600061199e82611cee565b6119a88185611cf9565b93506119b8818560208601611ddc565b6119c181611f77565b840191505092915050565b60006119d9600e83611cf9565b91506119e482611f88565b602082019050919050565b60006119fc601283611cf9565b9150611a0782611fb1565b602082019050919050565b6000611a1f601b83611cf9565b9150611a2a82611fda565b602082019050919050565b6000611a42601883611cf9565b9150611a4d82612003565b602082019050919050565b6000611a65601483611cf9565b9150611a708261202c565b602082019050919050565b6000611a88601783611cf9565b9150611a9382612055565b602082019050919050565b6000611aab601a83611cf9565b9150611ab68261207e565b602082019050919050565b611aca81611db1565b82525050565b6000602082019050611ae56000830184611966565b92915050565b6000606082019050611b006000830186611966565b8181036020830152611b128185611993565b90508181036040830152611b268184611993565b9050949350505050565b6000602082019050611b456000830184611975565b92915050565b6000602082019050611b606000830184611984565b92915050565b60006040820190508181036000830152611b808185611993565b90508181036020830152611b948184611993565b90509392505050565b60006020820190508181036000830152611bb6816119cc565b9050919050565b60006020820190508181036000830152611bd6816119ef565b9050919050565b60006020820190508181036000830152611bf681611a12565b9050919050565b60006020820190508181036000830152611c1681611a35565b9050919050565b60006020820190508181036000830152611c3681611a58565b9050919050565b60006020820190508181036000830152611c5681611a7b565b9050919050565b60006020820190508181036000830152611c7681611a9e565b9050919050565b6000602082019050611c926000830184611ac1565b92915050565b6000611ca2611cb3565b9050611cae8282611e41565b919050565b6000604051905090565b600067ffffffffffffffff821115611cd857611cd7611f48565b5b611ce182611f77565b9050602081019050919050565b600081519050919050565b600082825260208201905092915050565b6000611d1582611db1565b9150611d2083611db1565b9250827fffffffffffffffffffffffffffffffffffffffffffffffffffffffffffffffff03821115611d5557611d54611ebb565b5b828201905092915050565b6000611d6b82611d91565b9050919050565b60008115159050919050565b6000819050611d8c826120a7565b919050565b600073ffffffffffffffffffffffffffffffffffffffff82169050919050565b6000819050919050565b6000611dc682611d7e565b9050919050565b82818337600083830152505050565b60005b83811015611dfa578082015181840152602081019050611ddf565b83811115611e09576000848401525b50505050565b60006002820490506001821680611e2757607f821691505b60208210811415611e3b57611e3a611f19565b5b50919050565b611e4a82611f77565b810181811067ffffffffffffffff82111715611e6957611e68611f48565b5b80604052505050565b6000611e7d82611db1565b91507fffffffffffffffffffffffffffffffffffffffffffffffffffffffffffffffff821415611eb057611eaf611ebb565b5b600182019050919050565b7f4e487b7100000000000000000000000000000000000000000000000000000000600052601160045260246000fd5b7f4e487b7100000000000000000000000000000000000000000000000000000000600052602160045260246000fd5b7f4e487b7100000000000000000000000000000000000000000000000000000000600052602260045260246000fd5b7f4e487b7100000000000000000000000000000000000000000000000000000000600052604160045260246000fd5b6000601f19601f8301169050919050565b7f566f74652068617320656e646564000000000000000000000000000000000000600082015250565b7f4f6e6c792061646d696e20616c6c6f7765640000000000000000000000000000600082015250565b7f41646d696e20636f756c64206e6f742070617274696369706174650000000000600082015250565b7f43616e64696461746520616c7265616479206578697374730000000000000000600082015250565b7f4d61782070726f706f73616c2063726561746564000000000000000000000000600082015250565b7f446966666572656e74207374617465206f6620766f7465000000000000000000600082015250565b7f596f7520616c726561647920656d697420796f757220766f7465000000000000600082015250565b600581106120b8576120b7611eea565b5b50565b6120c481611d60565b81146120cf57600080fd5b50565b6120db81611db1565b81146120e657600080fd5b5056fea2646970667358221220553405b9e055d9574d87872c2a1806d56057a96f81a5ebd30104ed06a57d8c8264736f6c63430008040033",
  "linkReferences": {},
  "deployedLinkReferences": {}
}